{
  "contractName": "AIModelMarketplace",
  "abi": [
    {
      "anonymous": false,
      "inputs": [
        {
          "indexed": false,
          "internalType": "address",
          "name": "owner",
          "type": "address"
        },
        {
          "indexed": false,
          "internalType": "uint256",
          "name": "amount",
          "type": "uint256"
        }
      ],
      "name": "FundWithdrawn",
      "type": "event"
    },
    {
      "anonymous": false,
      "inputs": [
        {
          "indexed": false,
          "internalType": "uint256",
          "name": "id",
          "type": "uint256"
        },
        {
          "indexed": false,
          "internalType": "string",
          "name": "name",
          "type": "string"
        },
        {
          "indexed": false,
          "internalType": "string",
          "name": "description",
          "type": "string"
        },
        {
          "indexed": false,
          "internalType": "uint256",
          "name": "price",
          "type": "uint256"
        },
        {
          "indexed": false,
          "internalType": "address",
          "name": "owner",
          "type": "address"
        }
      ],
      "name": "ModelListed",
      "type": "event"
    },
    {
      "inputs": [],
      "name": "modelCount",
      "outputs": [
        {
          "internalType": "uint256",
          "name": "",
          "type": "uint256"
        }
      ],
      "stateMutability": "view",
      "type": "function",
      "constant": true
    },
    {
      "inputs": [
        {
          "internalType": "uint256",
          "name": "",
          "type": "uint256"
        }
      ],
      "name": "models",
      "outputs": [
        {
          "internalType": "uint256",
          "name": "id",
          "type": "uint256"
        },
        {
          "internalType": "string",
          "name": "name",
          "type": "string"
        },
        {
          "internalType": "string",
          "name": "description",
          "type": "string"
        },
        {
          "internalType": "uint256",
          "name": "price",
          "type": "uint256"
        },
        {
          "internalType": "address payable",
          "name": "owner",
          "type": "address"
        },
        {
          "internalType": "uint256",
          "name": "ratingSum",
          "type": "uint256"
        },
        {
          "internalType": "uint256",
          "name": "ratingCount",
          "type": "uint256"
        }
      ],
      "stateMutability": "view",
      "type": "function",
      "constant": true
    },
    {
      "inputs": [
        {
          "internalType": "address",
          "name": "",
          "type": "address"
        }
      ],
      "name": "pendingWithdrawals",
      "outputs": [
        {
          "internalType": "uint256",
          "name": "",
          "type": "uint256"
        }
      ],
      "stateMutability": "view",
      "type": "function",
      "constant": true
    },
    {
      "inputs": [
        {
          "internalType": "address",
          "name": "",
          "type": "address"
        },
        {
          "internalType": "uint256",
          "name": "",
          "type": "uint256"
        }
      ],
      "name": "purchases",
      "outputs": [
        {
          "internalType": "bool",
          "name": "",
          "type": "bool"
        }
      ],
      "stateMutability": "view",
      "type": "function",
      "constant": true
    },
    {
      "inputs": [
        {
          "internalType": "string",
          "name": "_name",
          "type": "string"
        },
        {
          "internalType": "string",
          "name": "_description",
          "type": "string"
        },
        {
          "internalType": "uint256",
          "name": "_price",
          "type": "uint256"
        }
      ],
      "name": "listModel",
      "outputs": [],
      "stateMutability": "nonpayable",
      "type": "function"
    },
    {
      "inputs": [
        {
          "internalType": "uint256",
          "name": "_id",
          "type": "uint256"
        }
      ],
      "name": "purchaseModel",
      "outputs": [],
      "stateMutability": "payable",
      "type": "function",
      "payable": true
    },
    {
      "inputs": [
        {
          "internalType": "uint256",
          "name": "_id",
          "type": "uint256"
        },
        {
          "internalType": "uint256",
          "name": "_rating",
          "type": "uint256"
        }
      ],
      "name": "rateModel",
      "outputs": [],
      "stateMutability": "nonpayable",
      "type": "function"
    },
    {
      "inputs": [
        {
          "internalType": "uint256",
          "name": "_id",
          "type": "uint256"
        }
      ],
      "name": "getModelRating",
      "outputs": [
        {
          "internalType": "uint256",
          "name": "",
          "type": "uint256"
        }
      ],
      "stateMutability": "view",
      "type": "function",
      "constant": true
    },
    {
      "inputs": [],
      "name": "withdrawFunds",
      "outputs": [],
      "stateMutability": "nonpayable",
      "type": "function"
    }
  ],
  "bytecode": "0x608060405234801561001057600080fd5b50610b2d806100206000396000f3fe6080604052600436106100865760003560e01c806399c64cc81161005957806399c64cc81461012b578063c6a645fe1461014b578063d2d4332f1461016d578063dc7468621461018d578063f3f43703146101a057610086565b806312ee1c0e1461008b57806324600fc3146100ad57806352d3f849146100c25780636a030ca9146100f8575b600080fd5b34801561009757600080fd5b506100ab6100a63660046107b2565b6101c0565b005b3480156100b957600080fd5b506100ab61030a565b3480156100ce57600080fd5b506100e26100dd366004610789565b610376565b6040516100ef91906108a0565b60405180910390f35b34801561010457600080fd5b5061011861011336600461081c565b610396565b6040516100ef97969594939291906109e2565b34801561013757600080fd5b506100ab610146366004610834565b6104eb565b34801561015757600080fd5b5061016061055d565b6040516100ef919061098b565b34801561017957600080fd5b5061016061018836600461081c565b610563565b6100ab61019b36600461081c565b61059e565b3480156101ac57600080fd5b506101606101bb366004610768565b610625565b600081116101e95760405162461bcd60e51b81526004016101e0906108ab565b60405180910390fd5b6000805490806101f883610ab0565b90915550506040805160e0810182526000805480835260208084018881528486018890526060850187905233608086015260a0850184905260c0850184905291835260018082529490922083518155905180519394919361026193928501929190910190610637565b506040820151805161027d916002840191602090910190610637565b506060820151600382015560808201516004820180546001600160a01b0319166001600160a01b0390921691909117905560a0820151600582015560c0909101516006909101556000546040517f988447004164f28081936f22661fc3898dda52a0210617c848e707ce976307bb916102fd918690869086903390610994565b60405180910390a1505050565b33600090815260036020526040902054806103375760405162461bcd60e51b81526004016101e0906108e2565b336000818152600360205260408082208290555183156108fc0291849190818181858888f19350505050158015610372573d6000803e3d6000fd5b5050565b600260209081526000928352604080842090915290825290205460ff1681565b6001602081905260009182526040909120805491810180546103b790610a75565b80601f01602080910402602001604051908101604052809291908181526020018280546103e390610a75565b80156104305780601f1061040557610100808354040283529160200191610430565b820191906000526020600020905b81548152906001019060200180831161041357829003601f168201915b50505050509080600201805461044590610a75565b80601f016020809104026020016040519081016040528092919081815260200182805461047190610a75565b80156104be5780601f10610493576101008083540402835291602001916104be565b820191906000526020600020905b8154815290600101906020018083116104a157829003601f168201915b50505050600383015460048401546005850154600690950154939491936001600160a01b03909116925087565b600181101580156104fd575060058111155b6105195760405162461bcd60e51b81526004016101e090610954565b60008281526001602052604081206005810180549192849261053c908490610a3d565b909155505060068101805490600061055383610ab0565b9190505550505050565b60005481565b60008181526001602052604081206006810154610581576000610595565b806006015481600501546105959190610a55565b9150505b919050565b600081815260016020526040902060038101543410156105d05760405162461bcd60e51b81526004016101e090610910565b3360009081526002602090815260408083208584528252808320805460ff1916600117905560048401546001600160a01b0316835260039091528120805434929061061c908490610a3d565b90915550505050565b60036020526000908152604090205481565b82805461064390610a75565b90600052602060002090601f01602090048101928261066557600085556106ab565b82601f1061067e57805160ff19168380011785556106ab565b828001600101855582156106ab579182015b828111156106ab578251825591602001919060010190610690565b506106b79291506106bb565b5090565b5b808211156106b757600081556001016106bc565b80356001600160a01b038116811461059957600080fd5b600082601f8301126106f7578081fd5b813567ffffffffffffffff8082111561071257610712610ae1565b604051601f8301601f19168101602001828111828210171561073657610736610ae1565b60405282815284830160200186101561074d578384fd5b82602086016020830137918201602001929092529392505050565b600060208284031215610779578081fd5b610782826106d0565b9392505050565b6000806040838503121561079b578081fd5b6107a4836106d0565b946020939093013593505050565b6000806000606084860312156107c6578081fd5b833567ffffffffffffffff808211156107dd578283fd5b6107e9878388016106e7565b945060208601359150808211156107fe578283fd5b5061080b868287016106e7565b925050604084013590509250925092565b60006020828403121561082d578081fd5b5035919050565b60008060408385031215610846578182fd5b50508035926020909101359150565b60008151808452815b8181101561087a5760208185018101518683018201520161085e565b8181111561088b5782602083870101525b50601f01601f19169290920160200192915050565b901515815260200190565b6020808252601f908201527f5072696365206d7573742062652067726561746572207468616e207a65726f00604082015260600190565b6020808252601490820152734e6f2066756e647320746f20776974686472617760601b604082015260600190565b60208082526024908201527f496e73756666696369656e742066756e647320746f207075726368617365206d6040820152631bd9195b60e21b606082015260800190565b6020808252601e908201527f526174696e67206d757374206265206265747765656e203120616e6420350000604082015260600190565b90815260200190565b600086825260a060208301526109ad60a0830187610855565b82810360408401526109bf8187610855565b606084019590955250506001600160a01b03919091166080909101529392505050565b600088825260e060208301526109fb60e0830189610855565b8281036040840152610a0d8189610855565b606084019790975250506001600160a01b0393909316608084015260a083019190915260c0909101529392505050565b60008219821115610a5057610a50610acb565b500190565b600082610a7057634e487b7160e01b81526012600452602481fd5b500490565b600281046001821680610a8957607f821691505b60208210811415610aaa57634e487b7160e01b600052602260045260246000fd5b50919050565b6000600019821415610ac457610ac4610acb565b5060010190565b634e487b7160e01b600052601160045260246000fd5b634e487b7160e01b600052604160045260246000fdfea2646970667358221220695d1fc359b985c1cf19dde8ea8a0e3b559ef72eecc069866d9913697ff241f664736f6c63430008000033",
  "immutableReferences": {},
  "source": "// SPDX-License-Identifier: UNKNOWN \r\npragma solidity ^0.8.0;\r\n\r\n\r\ncontract AIModelMarketplace {\r\n    struct AIModel {\r\n        uint id;\r\n        string name;\r\n        string description;\r\n        uint price;\r\n        address payable owner;\r\n        uint ratingSum;\r\n        uint ratingCount;\r\n    }\r\n\r\n    uint public modelCount;\r\n    mapping(uint => AIModel) public models;\r\n    mapping(address => mapping(uint256 => bool)) public purchases;\r\n    mapping(address => uint256) public pendingWithdrawals;\r\n\r\n    event ModelListed(uint id, string name, string description, uint price, address owner);\r\n    event FundWithdrawn(address owner, uint amount);\r\n    \r\n    function listModel(string memory _name, string memory _description, uint _price) public {\r\n        require(_price > 0, \"Price must be greater than zero\");\r\n        \r\n        modelCount++;\r\n        models[modelCount] = AIModel(modelCount, _name, _description, _price, payable(msg.sender), 0, 0);\r\n        \r\n        emit ModelListed(modelCount, _name, _description, _price, msg.sender);\r\n    }\r\n\r\n    function purchaseModel(uint256 _id) public payable {\r\n    AIModel storage model = models[_id];\r\n    require(msg.value >= model.price, \"Insufficient funds to purchase model\");\r\n    purchases[msg.sender][_id] = true;\r\n    pendingWithdrawals[model.owner] += msg.value;\r\n   \r\n}\r\n\r\n    function rateModel(uint _id, uint _rating) public {\r\n        require(_rating >= 1 && _rating <= 5, \"Rating must be between 1 and 5\");\r\n        \r\n        AIModel storage model = models[_id];\r\n        model.ratingSum += _rating;\r\n        model.ratingCount++;\r\n    }\r\n\r\n    function getModelRating(uint256 _id) public view returns (uint) {\r\n        AIModel storage model = models[_id];\r\n        return model.ratingCount > 0 ? model.ratingSum / model.ratingCount : 0;\r\n    }\r\n\r\n    function withdrawFunds() public {\r\n    uint256 amount = pendingWithdrawals[msg.sender];\r\n    require(amount > 0, \"No funds to withdraw\");\r\n\r\n    pendingWithdrawals[msg.sender] = 0;\r\n    payable(msg.sender).transfer(amount);\r\n}\r\n}\r\n\r\n",
  "sourcePath": "C:\\Users\\rasul\\Desktop\\Block\\contracts\\AIModelMarketplace.sol",
  "compiler": {
    "name": "solc",
    "version": "0.8.0+commit.c7dfd78e.Emscripten.clang"
  },
  "schemaVersion": "3.4.16",
  "updatedAt": "2024-10-02T09:17:12.124Z",
  "networkType": "ethereum",
  "devdoc": {
    "kind": "dev",
    "methods": {},
    "version": 1
  },
  "userdoc": {
    "kind": "user",
    "methods": {},
    "version": 1
  }
}